:100000000C942A000C9447000C9447000C94470071
:100010000C9447000C9447000C9447000C94470044
:100020000C9447000C9447000C9447000C94470034
:100030000C9447000C9447000C9447000C94470024
:100040000C9447000C9447000C9447000C94470014
:100050000C94470011241FBECFE5D8E0DEBFCDBF12
:1000600012E0A0E6B0E0EAEEF3E202C005900D92E5
:10007000A834B107D9F712E0A8E4B2E001C01D929C
:10008000AB35B107E1F70E94490C0C94F3110C94C5
:100090000000EF92FF920F931F937B018C0120E0F1
:1000A00030E040E05FE40E94490388238CF0C801FF
:1000B000B70120E030E040E05FE40E94C1010E940F
:1000C000A9039B01AC01205030404040504806C07D
:1000D000C801B7010E94A9039B01AC01B901CA0183
:1000E0001F910F91FF90EF900895A0E0B0E0EBE733
:1000F000F0E00C94BC11DC012B01FA019C919230D0
:1001000008F439C1EB018881823008F433C194309E
:1001100069F4843009F02FC111969C91119789815F
:10012000981709F428C1AFE3B2E025C1843009F47F
:1001300021C18230A9F4923009F01DC19A01AD01AC
:1001400088E0EA010990AE01E90109929E0181501F
:10015000C1F7E201898111969C918923818308C1AD
:10016000923009F407C112962D903C901397EB0141
:100170008A819B811496AD90BD90CD90DC901797AD
:10018000EC80FD800E811F819101281B390BB90184
:1001900037FF04C066277727621B730B6032710537
:1001A0000CF061C0121613066CF537014801062EDB
:1001B00004C096948794779467940A94D2F721E0C8
:1001C00030E040E050E004C0220F331F441F551FB1
:1001D0006A95D2F721503040404050402E213F21B7
:1001E00040235123211531054105510521F021E01E
:1001F00030E040E050E079018A01E628F72808293C
:1002000019293CC0232BD1F1260E371E350146019A
:10021000062E04C096948794779467940A94D2F734
:1002200021E030E040E050E004C0220F331F441FC3
:10023000551F6A95D2F721503040404050402A2146
:100240003B214C215D21211531054105510521F04E
:1002500021E030E040E050E059016A01A628B728CB
:10026000C828D9280BC0821593052CF01C01AA249C
:10027000BB24650103C0EE24FF24870111969C91E5
:10028000D20111968C91981709F445C0992339F041
:10029000A80197012A193B094C095D0906C0A6016E
:1002A00095012E193F09400B510B57FD08C01182D3
:1002B0003382228224833583468357831DC081E0A5
:1002C00081833382228288279927DC01821B930B4A
:1002D000A40BB50B84839583A683B7830DC0220F2F
:1002E000331F441F551F24833583468357838281E0
:1002F000938101979383828324813581468157813D
:10030000DA01C9010197A109B1098F5F9F4FAF4F72
:10031000BF4328F30BC0918333822282EA0CFB1C7B
:100320000C1D1D1DE482F5820683178383E0808304
:10033000248135814681578157FF1AC0C901AA27F8
:1003400097FDA095BA2F81709070A070B0705695EF
:10035000479537952795822B932BA42BB52B848318
:100360009583A683B7838281938101969383828349
:10037000DF0101C0D201CD01CDB7DEB7E2E10C94BF
:10038000D811A0E2B0E0E7ECF1E00C94C811698369
:100390007A838B839C832D833E834F835887E9E048
:1003A000EE2EF12CEC0EFD1ECE010196B7010E943F
:1003B000D2048E010F5E1F4FCE010596B8010E9438
:1003C000D2048A8991E089278A8BC701B801AE01DE
:1003D000475E5F4F0E9475000E94FD03A096E6E015
:1003E0000C94E411A0E2B0E0E8EFF1E00C94C81145
:1003F00069837A838B839C832D833E834F835887C5
:10040000F9E0EF2EF12CEC0EFD1ECE010196B701A6
:100410000E94D2048E010F5E1F4FCE010596B801D7
:100420000E94D204C701B801AE01475E5F4F0E942F
:1004300075000E94FD03A096E6E00C94E411A0E292
:10044000B0E0E5E2F2E00C94BC1169837A838B831F
:100450009C832D833E834F835887CE010196BE0136
:10046000675F7F4F0E94D204CE010596BE016F5E8A
:100470007F4F0E94D2049985923088F0898982301A
:10048000C8F0943019F4823051F404C0843029F457
:10049000923081F48FE392E0C6C0923049F420E0BC
:1004A0009A858A89981321E02A87CE010996BBC0D4
:1004B000823049F420E09A858A89981321E02A8BBA
:1004C000CE014196B0C02D843E844F8458886D88FB
:1004D0007E888F88988CEE24FF248701AA24BB2471
:1004E000650140E050E060E070E0E0E0F0E0C10174
:1004F00081709070892BE9F0E60CF71C081D191D1E
:100500009A01AB012A0D3B1D4C1D5D1D80E090E062
:10051000A0E0B0E0E614F7040805190520F481E036
:1005200090E0A0E0B0E0BA01A901480F591F6A1F8E
:100530007B1FAA0CBB1CCC1CDD1C97FE08C081E0F5
:1005400090E0A0E0B0E0A82AB92ACA2ADB2A3196B6
:10055000E032F10549F0660C771C881C991C569412
:10056000479437942794C3CFFA85EA892B893C892D
:100570008B859C85280F391F2E5F3F4F17C0CA01FE
:1005800081709070892B61F016950795F794E79428
:1005900080E090E0A0E0B0E8E82AF92A0A2B1B2BC3
:1005A00076956795579547952F5F3F4F77FDE7CF36
:1005B0000CC0440F551F661F771F17FD4160EE0CDE
:1005C000FF1C001F111F21503040403090E05907A0
:1005D00090E0690790E4790760F32B8F3C8FDB0193
:1005E000CA018F779070A070B07080349105A1051A
:1005F000B10561F447FD0AC0E114F10401051105DC
:1006000029F0405C5F4F6F4F7F4F40781A8EFE1786
:1006100011F081E08A8F4D8F5E8F6F8F78A383E01A
:10062000898FCE0149960E94FD03A096E2E10C94C9
:10063000D811A8E1B0E0EFE1F3E00C94C8116983B0
:100640007A838B839C832D833E834F83588789E0F5
:10065000E82EF12CEC0EFD1ECE010196B7010E9492
:10066000D2048E010F5E1F4FCE010596B8010E9485
:10067000D2048985823040F08989823028F0C70110
:10068000B8010E944A0501C08FEF6896E6E00C941D
:10069000E411A8E1B0E0EFE4F3E00C94C811698341
:1006A0007A838B839C832D833E834F83588789E095
:1006B000E82EF12CEC0EFD1ECE010196B7010E9432
:1006C000D2048E010F5E1F4FCE010596B8010E9425
:1006D000D2048985823040F08989823028F0C701B0
:1006E000B8010E944A0501C08FEF6896E6E00C94BD
:1006F000E411A8E1B0E0EFE7F3E00C94C8116983DE
:100700007A838B839C832D833E834F83588789E034
:10071000E82EF12CEC0EFD1ECE010196B7010E94D1
:10072000D2048E010F5E1F4FCE010596B8010E94C4
:10073000D2048985823040F08989823028F0C7014F
:10074000B8010E944A0501C081E06896E6E00C9479
:10075000E411ACE0B0E0EFEAF3E00C94CC11698373
:100760007A838B839C83CE010196BE016B5F7F4FA2
:100770000E94D2048D81823061F1823050F1843048
:1007800021F48E81882351F12EC02F81388537FDC9
:1007900020C06E812F3131051CF06623F9F023C093
:1007A0008EE190E0821B930B29853A854B855C8511
:1007B00004C056954795379527958A95D2F76623B5
:1007C000B1F050954095309521953F4F4F4F5F4F79
:1007D0000EC020E030E040E050E009C02FEF3FEFD6
:1007E0004FEF5FE704C020E030E040E050E8B9019F
:1007F000CA012C96E2E00C94E811DF92EF92FF928E
:100800000F931F93FC01E480F58006811781D1804E
:100810008081823048F480E090E0A0E1B0E0E82AF6
:10082000F92A0A2B1B2BA5C0843009F49FC0823003
:1008300021F4EE24FF24870105C0E114F104010531
:10084000110519F4E0E0F0E096C0628173819FEF3A
:10085000623879070CF05BC022E83FEF261B370BAC
:100860002A3131052CF020E030E040E050E02AC091
:10087000B801A701022E04C0769567955795479554
:100880000A94D2F781E090E0A0E0B0E004C0880FC5
:10089000991FAA1FBB1F2A95D2F70197A109B10979
:1008A0008E219F21A023B1230097A105B10521F03E
:1008B00081E090E0A0E0B0E09A01AB01282B392B59
:1008C0004A2B5B2BDA01C9018F779070A070B07052
:1008D00080349105A105B10539F427FF09C0205CDA
:1008E0003F4F4F4F5F4F04C0215C3F4F4F4F5F4F13
:1008F000E0E0F0E02030A0E03A07A0E04A07A0E402
:100900005A0710F0E1E0F0E079018A0127C0603871
:10091000710564F5FB01E158FF4FD801C7018F77DE
:100920009070A070B07080349105A105B10539F4C4
:10093000E7FE0DC080E490E0A0E0B0E004C08FE3EB
:1009400090E0A0E0B0E0E80EF91E0A1F1B1F17FFA1
:1009500005C016950795F794E794319687E01695AC
:100960000795F794E7948A95D1F705C0EE24FF2404
:100970008701EFEFF0E06E2F679566276795902F60
:100980009F77D794DD24D7948E2F8695492F462BB9
:10099000582F5D29B701CA011F910F91FF90EF9069
:1009A000DF900895FC01DB01408151812281622F9B
:1009B0006F7770E0221F2227221F9381892F880FD3
:1009C000822B282F30E0991F9927991F11969C930D
:1009D000119721153105A9F54115510561057105DD
:1009E00011F482E037C082E89FEF13969C938E93B8
:1009F00012979A01AB0167E0220F331F441F551F66
:100A00006A95D1F783E08C930DC0220F331F441FEA
:100A1000551F12968D919C911397019713969C9355
:100A20008E931297203080E0380780E0480780E4FA
:100A3000580758F314962D933D934D935C93179755
:100A400008952F3F310579F4411551056105710570
:100A500019F484E08C93089564FF03C081E08C93C3
:100A600012C01C9210C02F57304013963C932E9307
:100A7000129783E08C9387E0440F551F661F771F02
:100A80008A95D1F7706414964D935D936D937C9322
:100A9000179708951F93DC01FB019C91923008F495
:100AA00047C08081823008F443C0943051F41196DD
:100AB0001C91843099F58181682F70E0611B710968
:100AC0003FC0843021F0923031F48230B9F181811D
:100AD000882389F12DC011961C9111978230F1F075
:100AE00081811817D9F412962D913C911397828128
:100AF00093818217930794F028173907BCF0149656
:100B00008D919D910D90BC91A02D248135814681C0
:100B10005781281739074A075B0718F4112341F05A
:100B20000AC082179307A407B50740F4112319F0F0
:100B300061E070E005C06FEF7FEF02C060E070E041
:100B4000CB011F910895DF93CF93CDB7DEB70E94FD
:100B50005B06CF91DF910895DF93CF9300D000D053
:100B600000D0CDB7DEB78A837C836B834D838A81C7
:100B7000882341F48B819C81892F9927880F806A73
:100B800089830AC08A81813039F48B819C81892FC5
:100B90009927880F8B6A89830E94860688E00E94C5
:100BA000E2068130E9F489810E94A10688E10E9471
:100BB000E2068130A9F48B810E94B80688E20E9487
:100BC000E206813069F48D810E94B80688E20E94B5
:100BD000E206813029F40E94960681E08E8301C0EE
:100BE0001E828E8126960FB6F894DEBF0FBECDBF53
:100BF000CF91DF910895DF93CF93CDB7DEB72797DD
:100C00000FB6F894DEBF0FBECDBF8A837C836B83A3
:100C10005E834D838A81882341F48B819C81892F57
:100C20009927880F806A89830AC08A81813039F4C4
:100C30008B819C81892F9927880F8B6A89830E94D9
:100C4000860688E00E94E206813051F589810E9483
:100C5000A10688E10E94E206813011F58B810E9495
:100C6000B80688E20E94E2068130D1F40E9486062E
:100C700080E10E94E206813099F4898181600E94BE
:100C8000A10680E40E94E206813051F40E94CF0662
:100C9000ED81FE8180830E94960681E08F8301C0F2
:100CA0001F828F8127960FB6F894DEBF0FBECDBF8F
:100CB000CF91DF910895DF93CF93CDB7DEB7A6E54F
:100CC000B0E0E6E5F0E0808184608C93A6E5B0E0DA
:100CD000E6E5F0E0808180648C93E0E2F0E082E081
:100CE0008083A1E2B0E0E1E2F0E080818D7F8C932F
:100CF000A1E2B0E0E1E2F0E080818E7F8C93E2E25D
:100D0000F0E082E08083CF91DF910895DF93CF936D
:100D1000CDB7DEB7E6E5F0E084EA8083E6E5F0E013
:100D200080818823DCF7CF91DF910895DF93CF9303
:100D3000CDB7DEB7E6E5F0E084E98083CF91DF91BF
:100D40000895DF93CF930F92CDB7DEB78983E3E2A7
:100D5000F0E089818083E6E5F0E084E88083E6E5E1
:100D6000F0E080818823DCF70F90CF91DF91089528
:100D7000DF93CF930F92CDB7DEB78983E3E2F0E044
:100D800089818083E6E5F0E084E88083E6E5F0E0B1
:100D900080818823DCF70F90CF91DF910895DF9356
:100DA000CF93CDB7DEB7E6E5F0E084E88083E6E5F3
:100DB000F0E080818823DCF7E3E2F0E08081CF91EE
:100DC000DF910895DF93CF9300D0CDB7DEB789834D
:100DD0008981282F30E0E1E2F0E08081882F90E0E7
:100DE000887F90702817390719F481E08A8301C041
:100DF0001A828A810F900F90CF91DF9108950F93FF
:100E00001F93DF93CF93CDB7DEB7A2970FB6F894B9
:100E1000DEBF0FBECDBF98A38F8F7AA369A380E6F4
:100E200090E00E941A0C1E8E92C08E8D282F30E00A
:100E30008F8D98A18C01020F131F0E940B0CF801DB
:100E400080838E8D282F30E08F8D98A1FC01E20FDA
:100E5000F31F80810E94F10B8DE00E94F10B8AE06C
:100E60000E94F10B80E090E0A0E2B1E4898F9A8FBC
:100E7000AB8FBC8F698D7A8D8B8D9C8D20E030E09F
:100E80004AEF54E40E941F02DC01CB018D8B9E8B44
:100E9000AF8BB88F6D897E898F89988D20E030E087
:100EA00040E85FE30E94790388232CF481E090E01E
:100EB0009C8B8B8B3FC06D897E898F89988D20E0BC
:100EC0003FEF4FE757E40E94190318164CF5698D60
:100ED0007A8D8B8D9C8D20E030E040E251E40E94C1
:100EE0001F02DC01CB01BC01CD010E944900DC01E5
:100EF000CB019C8B8B8B0FC088EC90E09A8B898BFD
:100F000089899A890197F1F79A8B898B8B899C89BA
:100F100001979C8B8B8B8B899C89009769F714C0F8
:100F20006D897E898F89988D0E944900DC01CB01F3
:100F30009C8B8B8B8B899C89988B8F878F859889CD
:100F40000197F1F7988B8F878E8D8F5F8E8F8E8DA7
:100F5000843008F46ACF83E890E00E941A0C1D8E5A
:100F600092C08D8D282F30E089A19AA18C01020FAB
:100F7000131F0E940B0CF80180838D8D282F30E009
:100F800089A19AA1FC01E20FF31F80810E94F10B5D
:100F90008DE00E94F10B8AE00E94F10B80E090E06E
:100FA000A0E2B1E48B879C87AD87BE876B857C858B
:100FB0008D859E8520E030E04AEF54E40E941F02B8
:100FC000DC01CB018F839887A987BA876F817885E9
:100FD00089859A8520E030E040E85FE30E9479034C
:100FE00088232CF481E090E09E838D833FC06F8145
:100FF000788589859A8520E03FEF4FE757E40E9486
:10100000190318164CF56B857C858D859E8520E02F
:1010100030E040E251E40E941F02DC01CB01BC0140
:10102000CD010E944900DC01CB019E838D830FC05E
:1010300088EC90E09C838B838B819C810197F1F7F6
:101040009C838B838D819E8101979E838D838D816F
:101050009E81009769F714C06F81788589859A858C
:101060000E944900DC01CB019E838D838D819E818E
:101070009A83898389819A810197F1F79A83898379
:101080008D8D8F5F8D8F8D8D843008F46ACFA29601
:101090000FB6F894DEBF0FBECDBFCF91DF911F9189
:1010A0000F9108950F931F93DF93CF9300D00F926A
:1010B000CDB7DEB79B838A8389EA90E00E941A0C41
:1010C000198220C08981282F30E08A819B818C0180
:1010D000020F131F0E940B0CF80180838981282FB7
:1010E00030E08A819B81FC01E20FF31F80810E9426
:1010F000F10B8DE00E94F10B8AE00E94F10B8981D7
:101100008F5F898389818430E8F20F900F900F9070
:10111000CF91DF911F910F910895DF93CF93CDB7BA
:10112000DEB727970FB6F894DEBF0FBECDBF9D8305
:101130008C837F836E831B8219822BC08981282F29
:1011400030E08C819D81FC01E20FF31F4081898199
:10115000282F30E08E819F81FC01E20FF31F8081F8
:101160004817A1F48B818F5F8B838981282F30E012
:101170008C819D81FC01E20FF31F80810E94F10BA5
:101180008DE00E94F10B8AE00E94F10B89818F5F54
:1011900089838981843090F28B81843019F481E0D5
:1011A0008A8301C01A828A8127960FB6F894DEBF1F
:1011B0000FBECDBFCF91DF910895DF93CF93CDB711
:1011C000DEB7AE970FB6F894DEBF0FBECDBF9EA7B9
:1011D0008DA788EC90E00E941A0C8DE00E94F10B24
:1011E0008AE00E94F10B1BA689C18BA5882F90E095
:1011F00044969C01AE01445D5F4F80E0B9010E94BE
:10120000FB0580E090E0A0E2B1E48FA398A7A9A736
:10121000BAA76FA178A589A59AA520E030E04AEF8A
:1012200054E40E941F02DC01CB018BA39CA3ADA35D
:10123000BEA36BA17CA18DA19EA120E030E040E87F
:101240005FE30E94790388232CF481E090E09AA365
:1012500089A33FC06BA17CA18DA19EA120E03FEF9F
:101260004FE757E40E94190318164CF56FA178A5B3
:1012700089A59AA520E030E040E251E40E941F02D7
:10128000DC01CB01BC01CD010E944900DC01CB0196
:101290009AA389A30FC088EC90E098A38F8F8F8DBD
:1012A00098A10197F1F798A38F8F89A19AA101972F
:1012B0009AA389A389A19AA1009769F714C06BA189
:1012C0007CA18DA19EA10E944900DC01CB019AA3C3
:1012D00089A389A19AA19E8F8D8F8D8D9E8D019757
:1012E000F1F79E8F8D8F8BA5282F30E08DA59EA5C1
:1012F000FC01E20FF31F8CA5808380E090E0A0E268
:10130000B1E4898F9A8FAB8FBC8F698D7A8D8B8D6D
:101310009C8D20E030E04AEF54E40E941F02DC0183
:10132000CB018D8B9E8BAF8BB88F6D897E898F891A
:10133000988D20E030E040E85FE30E947903882345
:101340002CF481E090E09C8B8B8B3FC06D897E8973
:101350008F89988D20E03FEF4FE757E40E941903F3
:1013600018164CF5698D7A8D8B8D9C8D20E030E0C0
:1013700040E251E40E941F02DC01CB01BC01CD011F
:101380000E944900DC01CB019C8B8B8B0FC088EC49
:1013900090E09A8B898B89899A890197F1F79A8BCA
:1013A000898B8B899C8901979C8B8B8B8B899C89E2
:1013B000009769F714C06D897E898F89988D0E9486
:1013C0004900DC01CB019C8B8B8B8B899C89988B92
:1013D0008F878F8598890197F1F7988B8F878BA5D9
:1013E000282F30E08DA59EA5FC01E20FF31F808120
:1013F0000E94F10B8DE00E94F10B8AE00E94F10B3C
:101400008CA50E94F10B8DE00E94F10B8AE00E94F6
:10141000F10B80E090E0A0E2B1E48B879C87AD8780
:10142000BE876B857C858D859E8520E030E04AEF08
:1014300054E40E941F02DC01CB018F839887A987A7
:10144000BA876F81788589859A8520E030E040E809
:101450005FE30E94790388232CF481E090E09E836F
:101460008D833FC06F81788589859A8520E03FEF25
:101470004FE757E40E94190318164CF56B857C85DD
:101480008D859E8520E030E040E251E40E941F02FD
:10149000DC01CB01BC01CD010E944900DC01CB0184
:1014A0009E838D830FC088EC90E09C838B838B811F
:1014B0009C810197F1F79C838B838D819E8101979D
:1014C0009E838D838D819E81009769F714C06F8103
:1014D000788589859A850E944900DC01CB019E832D
:1014E0008D838D819E819A83898389819A810197D9
:1014F000F1F79A8389838BA58F5F8BA78BA58430A7
:1015000008F473CEAE960FB6F894DEBF0FBECDBF13
:10151000CF91DF910895DF93CF93CDB7DEB7A0973A
:101520000FB6F894DEBF0FBECDBF98A38F8F1E8E6F
:101530008CC08E8D282F30E08F8D98A1FC01E20F9A
:10154000F31F80818D8F8E8D882F90E044969C01B3
:1015500080E0B9014D8D0E94AC0580E090E0A0E2F2
:10156000B1E4898F9A8FAB8FBC8F698D7A8D8B8D0B
:101570009C8D20E030E04AEF54E40E941F02DC0121
:10158000CB018D8B9E8BAF8BB88F6D897E898F89B8
:10159000988D20E030E040E85FE30E9479038823E3
:1015A0002CF481E090E09C8B8B8B3FC06D897E8911
:1015B0008F89988D20E03FEF4FE757E40E94190391
:1015C00018164CF5698D7A8D8B8D9C8D20E030E05E
:1015D00040E251E40E941F02DC01CB01BC01CD01BD
:1015E0000E944900DC01CB019C8B8B8B0FC088ECE7
:1015F00090E09A8B898B89899A890197F1F79A8B68
:10160000898B8B899C8901979C8B8B8B8B899C897F
:10161000009769F714C06D897E898F89988D0E9423
:101620004900DC01CB019C8B8B8B8B899C89988B2F
:101630008F878F8598890197F1F7988B8F878D8D8C
:101640000E94F10B8E8D8F5F8E8F8E8D843008F40B
:1016500070CF82EF90E00E941A0C80E090E0A8EC3E
:10166000B2E48B879C87AD87BE876B857C858D8533
:101670009E8520E030E04AEF54E40E941F02DC0126
:10168000CB018F839887A987BA876F8178858985F1
:101690009A8520E030E040E85FE30E9479038823E8
:1016A0002CF481E090E09E838D833FC06F8178852C
:1016B00089859A8520E03FEF4FE757E40E941903A0
:1016C00018164CF56B857C858D859E8520E030E075
:1016D00040E251E40E941F02DC01CB01BC01CD01BC
:1016E0000E944900DC01CB019E838D830FC088ECF2
:1016F00090E09C838B838B819C810197F1F79C8385
:101700008B838D819E8101979E838D838D819E81A8
:10171000009769F714C06F81788589859A850E9442
:101720004900DC01CB019E838D838D819E819A834C
:10173000898389819A810197F1F79A83898380E06F
:1017400060E170E041E30E94AC05A0960FB6F8940A
:10175000DEBF0FBECDBFCF91DF910895DF93CF9352
:101760000F92CDB7DEB71982AAE2B0E0EAE2F0E06C
:10177000808180618C93AAE2B0E0EAE2F0E08081AF
:1017800088608C9389818F7B898389818F7D898310
:1017900089818F7E89838981877F8983AAE2B0E0EE
:1017A000EAE2F0E080818B7F8C9389818460898379
:1017B000898182608983E0E4F0E089818083ABE203
:1017C000B0E0EBE2F0E080818D7F8C93E0E4F0E02C
:1017D0001082E9E2F0E083E380830F90CF91DF9104
:1017E0000895DF93CF930F92CDB7DEB78983EBE2F5
:1017F000F0E08081829586958770882F90E08170D7
:1018000090700097A1F3ECE2F0E0898180830F9063
:10181000CF91DF910895DF93CF93CDB7DEB7EBE2A1
:10182000F0E080818823DCF7ECE2F0E08081CF916A
:10183000DF910895DF93CF9300D00F92CDB7DEB73D
:101840009B838A8319820EC08981282F30E08A8188
:101850009B81FC01E20FF31F80810E94F10B8981C3
:101860008F5F89838981282F30E08A819B81FC01E9
:10187000E20FF31F8081882339F78DE00E94F10B7E
:101880008AE00E94F10B0F900F900F90CF91DF91A3
:1018900008950F931F93DF93CF93CDB7DEB7C25751
:1018A000D0400FB6F894DEBF0FBECDBF0E94AE0B86
:1018B0000E94A30588E191E00E941A0CFE01E35901
:1018C000FF4F80E090E0A8ECB2E480839183A28394
:1018D000B3838E0107591F4FFE01E359FF4F60810B
:1018E00071818281938120E030E04AEF54E40E94CC
:1018F0001F02DC01CB01F80180839183A283B383B3
:10190000FE01E759FF4F608171818281938120E060
:1019100030E040E85FE30E947903882344F4FE014D
:10192000E959FF4F81E090E09183808364C0FE011C
:10193000E759FF4F608171818281938120E03FEF01
:101940004FE757E40E94190318160CF043C0FE013C
:10195000E359FF4F608171818281938120E030E003
:1019600040E251E40E941F02DC01CB018E010959C3
:101970001F4FBC01CD010E944900DC01CB01F801E1
:10198000918380831FC0FE01EB59FF4F88EC90E0EC
:1019900091838083FE01EB59FF4F808191810197F4
:1019A000F1F7FE01EB59FF4F91838083DE01A959C6
:1019B000BF4FFE01E959FF4F808191810197119638
:1019C0009C938E93FE01E959FF4F8081918100978E
:1019D000D1F628C08E0109591F4FFE01E759FF4F6C
:1019E00060817181828193810E944900DC01CB0179
:1019F000F80191838083DE01AD59BF4FFE01E959A3
:101A0000FF4F8081918111969C938E93FE01ED5939
:101A1000FF4F808191810197F1F7FE01ED59FF4F52
:101A20009183808381E080935A0280915A028130B1
:101A300009F0ECC382E592E00E94DD0886E391E0C4
:101A40000E941A0CFE01E15AFF4F80E090E0A8ECE2
:101A5000B2E480839183A283B3838E01055A1F4F22
:101A6000FE01E15AFF4F608171818281938120E004
:101A700030E04AEF54E40E941F02DC01CB01F80180
:101A800080839183A283B383FE01E55AFF4F608177
:101A900071818281938120E030E040E85FE30E9421
:101AA0007903882344F4FE01E75AFF4F81E090E078
:101AB0009183808364C0FE01E55AFF4F608171818C
:101AC0008281938120E03FEF4FE757E40E941903A2
:101AD00018160CF043C0FE01E15AFF4F608171817E
:101AE0008281938120E030E040E251E40E941F02B5
:101AF000DC01CB018E01075A1F4FBC01CD010E94B2
:101B00004900DC01CB01F801918380831FC0FE01F5
:101B1000E95AFF4F88EC90E091838083FE01E95AF7
:101B2000FF4F808191810197F1F7FE01E95AFF4F44
:101B300091838083DE01A75ABF4FFE01E75AFF4F12
:101B400080819181019711969C938E93FE01E75AB3
:101B5000FF4F808191810097D1F627C08E01075AEF
:101B60001F4FFE01E55AFF4F608171818281938191
:101B70000E944900DC01CB01F80191838083DE01E2
:101B8000AB5ABF4FFE01E75AFF4F808191818D9381
:101B90009C93FE01EB5AFF4F808191810197F1F7F1
:101BA000FE01EB5AFF4F918380838EE492E00E9406
:101BB000520882E592E02EE432E0B9010E948D08DD
:101BC0008093480280914802813009F06FC283E51A
:101BD00091E00E941A0CFE01EF5AFF4F80E090E066
:101BE000A8ECB2E480839183A283B3838E01035B6C
:101BF0001F4FFE01EF5AFF4F6081718182819381F7
:101C000020E030E04AEF54E40E941F02DC01CB01E7
:101C1000F80180839183A283B383FE01E35BFF4FCE
:101C2000608171818281938120E030E040E85FE350
:101C30000E947903882344F4FE01E55BFF4F81E0B5
:101C400090E09183808364C0FE01E35BFF4F60817D
:101C500071818281938120E03FEF4FE757E40E943A
:101C6000190318160CF043C0FE01EF5AFF4F6081B4
:101C700071818281938120E030E040E251E40E9452
:101C80001F02DC01CB018E01055B1F4FBC01CD01A2
:101C90000E944900DC01CB01F801918380831FC0C1
:101CA000FE01E75BFF4F88EC90E091838083FE01AB
:101CB000E75BFF4F808191810197F1F7FE01E75BC0
:101CC000FF4F91838083DE01A55BBF4FFE01E55B83
:101CD000FF4F80819181019711969C938E93FE0115
:101CE000E55BFF4F808191810097D1F627C08E017F
:101CF000055B1F4FFE01E35BFF4F608171818281B5
:101D000093810E944900DC01CB01F801918380831B
:101D1000DE01A95BBF4FFE01E55BFF4F8081918132
:101D20008D939C93FE01E95BFF4F80819181019728
:101D3000F1F7FE01E95BFF4F918380838BE791E030
:101D40000E941A0CFE01ED5BFF4F80E090E0A8ECD2
:101D5000B2E480839183A283B3838E01015C1F4F21
:101D6000FE01ED5BFF4F608171818281938120E0F4
:101D700030E04AEF54E40E941F02DC01CB01F8017D
:101D800080839183A283B383FE01FF96608171817A
:101D90008281938120E030E040E85FE30E94790394
:101DA00088232CF481E090E09EAF8DAF46C0FE0109
:101DB000FF96608171818281938120E03FEF4FE740
:101DC00057E40E941903181664F5FE01ED5BFF4FFE
:101DD000608171818281938120E030E040E251E4B2
:101DE0000E941F02DC01CB01BC01CD010E94490011
:101DF000DC01CB019EAF8DAF0FC088EC90E09CAFB3
:101E00008BAF8BAD9CAD0197F1F79CAF8BAF8DADD8
:101E10009EAD01979EAF8DAF8DAD9EAD009769F7DA
:101E200016C0FE01FF9660817181828193810E94BC
:101E30004900DC01CB019EAF8DAF8DAD9EAD9AAF59
:101E400089AF89AD9AAD0197F1F79AAF89AF0E943A
:101E50000B0C80934D0280E090E0AAEFB3E48DABD1
:101E60009EABAFABB8AF6DA97EA98FA998AD20E0AE
:101E700030E04AEF54E40E941F02DC01CB0189AB41
:101E80009AABABABBCAB69A97AA98BA99CA920E0A2
:101E900030E040E85FE30E94790388232CF481E07E
:101EA00090E098AB8FA73FC069A97AA98BA99CA99C
:101EB00020E03FEF4FE757E40E94190318164CF556
:101EC0006DA97EA98FA998AD20E030E040E251E4F1
:101ED0000E941F02DC01CB01BC01CD010E94490020
:101EE000DC01CB0198AB8FA70FC088EC90E09EA7D8
:101EF0008DA78DA59EA50197F1F79EA78DA78FA50C
:101F000098A9019798AB8FA78FA598A9009769F713
:101F100014C069A97AA98BA99CA90E944900DC0177
:101F2000CB0198AB8FA78FA598A99CA78BA78BA552
:101F30009CA50197F1F79CA78BA780914D0289374B
:101F4000C9F586E592E029E432E0B9010E94FF0676
:101F500086E592E029E432E0B9010E948D08809381
:101F6000480280914802813029F486E592E00E947F
:101F70008B0A1FC0809148028823D9F410C086E5DF
:101F800092E029E432E0B9010E94FF0686E592E082
:101F900029E432E0B9010E948D08809348028091C3
:101FA0004802882361F386E592E00E948B0A109232
:101FB00048027BC080914D028E3609F076C08AE8D7
:101FC00091E00E941A0C80E090E0A8ECB2E48FA3AC
:101FD00098A7A9A7BAA76FA178A589A59AA520E077
:101FE00030E04AEF54E40E941F02DC01CB018BA3D6
:101FF0009CA3ADA3BEA36BA17CA18DA19EA120E05B
:1020000030E040E85FE30E94790388232CF481E00C
:1020100090E09AA389A33FC06BA17CA18DA19EA152
:1020200020E03FEF4FE757E40E94190318164CF5E4
:102030006FA178A589A59AA520E030E040E251E49F
:102040000E941F02DC01CB01BC01CD010E944900AE
:10205000DC01CB019AA389A30FC088EC90E098A380
:102060008F8F8F8D98A10197F1F798A38F8F89A1FA
:102070009AA101979AA389A389A19AA1009769F7C8
:1020800014C06BA17CA18DA19EA10E944900DC011E
:10209000CB019AA389A389A19AA19E8F8D8F8D8D43
:1020A0009E8D0197F1F79E8F8D8FAFC0FE01EE5888
:1020B000FF4F1082FE01EF58FF4F108223C08EE4C5
:1020C00092E00E94520882E592E02EE432E0B901EB
:1020D0000E948D0880934802809148028130C1F0AF
:1020E000DE01AE58BF4FFE01EE58FF4F80818F5F7B
:1020F0008C93DE01AF58BF4FFE01EF58FF4F808138
:102100008F5F8C93FE01EF58FF4F80818330B8F2D0
:10211000FE01EE58FF4F8081833009F076C081EBDD
:1021200091E00E941A0C80E090E0A8ECB2E4898F64
:102130009A8FAB8FBC8F698D7A8D8B8D9C8D20E0B3
:1021400030E04AEF54E40E941F02DC01CB018D8B8A
:102150009E8BAF8BB88F6D897E898F89988D20E09B
:1021600030E040E85FE30E94790388232CF481E0AB
:1021700090E09C8B8B8B3FC06D897E898F89988D79
:1021800020E03FEF4FE757E40E94190318164CF583
:10219000698D7A8D8B8D9C8D20E030E040E251E49A
:1021A0000E941F02DC01CB01BC01CD010E9449004D
:1021B000DC01CB019C8B8B8B0FC088EC90E09A8B61
:1021C000898B89899A890197F1F79A8B898B8B89F9
:1021D0009C8901979C8B8B8B8B899C89009769F7D5
:1021E00014C06D897E898F89988D0E944900DC0119
:1021F000CB019C8B8B8B8B899C89988B8F878F8550
:1022000098890197F1F7988B8F87B5C086E592E0A2
:1022100029E432E0B9010E94FF0686E592E029E454
:1022200032E0B9010E948D088093480280914802F3
:10223000813029F486E592E00E948B0A9CC080914F
:102240004802882309F097C014C08AEE91E00E94EA
:102250001A0C86E592E029E432E0B9010E94FF06FB
:1022600086E592E029E432E0B9010E948D0880936E
:10227000480280914802882341F389E192E00E945C
:102280001A0C80E090E0A8ECB2E48B879C87AD87C5
:10229000BE876B857C858D859E8520E030E04AEF8A
:1022A00054E40E941F02DC01CB018F839887A98729
:1022B000BA876F81788589859A8520E030E040E88B
:1022C0005FE30E94790388232CF481E090E09E83F1
:1022D0008D833FC06F81788589859A8520E03FEFA7
:1022E0004FE757E40E94190318164CF56B857C855F
:1022F0008D859E8520E030E040E251E40E941F027F
:10230000DC01CB01BC01CD010E944900DC01CB0105
:102310009E838D830FC088EC90E09C838B838B81A0
:102320009C810197F1F79C838B838D819E8101971E
:102330009E838D838D819E81009769F714C06F8184
:10234000788589859A850E944900DC01CB019E83AE
:102350008D838D819E819A83898389819A8101975A
:10236000F1F79A8389831092480280E060E170E07F
:1023700041E00E94AC05FFCF2F923F924F925F92B7
:102380006F927F928F929F92AF92BF92CF92DF9285
:10239000EF92FF920F931F93CF93DF93CDB7DEB7EA
:1023A000CA1BDB0B0FB6F894DEBF0FBECDBF09947E
:1023B0002A88398848885F846E847D848C849B84D5
:1023C000AA84B984C884DF80EE80FD800C811B81E3
:1023D000AA81B981CE0FD11D0FB6F894DEBF0FBE12
:0A23E000CDBFED010895F894FFCF82
:1023EA00506C6561736520456E74657220596F750E
:1023FA0072204E65772050617373776F7264204143
:10240A00414100506C656173652052652D456E74BB
:10241A00657220596F7572204E657720504173732B
:10242A00776F72642042424200506C656173652086
:10243A00456E74657220596F757220506173737797
:10244A006F72642E2E2E2E004E6F772069276D2014
:10245A0067656574696E6720796F7572205041737C
:10246A0073776F72642066726F6D20454550726F84
:10247A006D00596F75722050617373776F726420A3
:10248A00697320557064617465642053756363656C
:10249A00737366756C6C790057656C636F6D652034
:1024AA00746F2050617373776F7264205570646122
:1024BA00746572203100706C6561736520456E74B5
:1024CA00657220596F75722050617373776F7264E9
:1024DA00203200446F20596F752057616E74205462
:1024EA006F2055706461746520596F757220506150
:1024FA007373776F7264203F203300507265737371
:10250A002059206F72204E2034005468616E6B206F
:10251A00796F7520666F72205573696E67205061F6
:10252A007373776F726420557064617465722037B3
:10253A0000596F7572204163636F756E74206973F9
:10254A0020426C6F636B656420506C656173652013
:10255A00456E7465722041646D696E2773205061FF
:10256A007373776F726420313000596F7520706110
:10257A007373776F726420646F6E2774206D617451
:10258A00636820706C656173652077726974652071
:10259A00697420616761696E00596F7572205061B4
:1025AA007373776F72642069732055706461746500
:1025BA0064205375636365737366756C6C79000088
:0825CA00000000000000000009
:00000001FF
